:1C44000081000024B113A4000C43B11300001C43B1139E0032D01000FD3F03432B
:04FF8000FFFFFFFF81
:04FF8400FFFFFFFF7D
:08FF8800FFFFFFFFFFFFFFFF79
:02FFCC001444DB
:02FFCE001444D9
:02FFD0001444D7
:02FFD2001444D5
:02FFD4001444D3
:02FFD6001444D1
:02FFD8001444CF
:02FFDA001444CD
:02FFDC001444CB
:02FFDE001444C9
:02FFE0001444C7
:02FFE2001444C5
:02FFE4001444C3
:02FFE6001444C1
:02FFE8001444BF
:02FFEA001444BD
:02FFEC001444BB
:02FFEE001444B9
:02FFF0001444B7
:02FFF2001444B5
:02FFF4001444B3
:02FFF6001444B1
:02FFF8001444AF
:02FFFA001444AD
:02FFFC001444AB
:02FFFE000044BD
:020000040001F9
:20000000B240805A5C01C2430A02C2430C02E2420602C2430202F240FB000402C2431C0208
:20002000C2431A02C2430B02C2430D02C2430702C2430302F2408F000502C2431D02C24370
:200040001B02C2432A02C2432C02C2432602C2432202F240FE002402C2433C02C2433A02EF
:20006000C2432B02C2432D02C2432702C2432302F240F0002502C2433D02C2433B0282432E
:200080002A0382432C0382432203B240FF00240392C3300132D0F0000343FF3F03430343B5
:0800A000FF3F03431C43100164
:00000001FF
